{
  "contractName": "UsersContract",
  "abi": [
    {
      "inputs": [],
      "name": "perform_transactions",
      "outputs": [],
      "stateMutability": "nonpayable",
      "type": "function"
    }
  ],
  "bytecode": "0x6080604052348015600f57600080fd5b50606d80601d6000396000f3fe6080604052348015600f57600080fd5b506004361060285760003560e01c8063ff0c51ba14602d575b600080fd5b60336035565b005b56fea2646970667358221220207ce37a46eaa6ed4399d1f8f2a75b7466ab353025b8d3c548578cddbb01e96864736f6c634300080a0033",
  "immutableReferences": {},
  "source": "pragma solidity >=0.4.22 <0.9.0;\r\n    contract UsersContract {\r\n    \r\n    \r\n    function perform_transactions() public{\r\n       \r\n    }\r\n        \r\n}\r\n",
  "sourcePath": "D:\\MYPROJECT\\DocumentHolder-Truffle\\contracts\\UsersContract.sol",
  "compiler": {
    "name": "solc",
    "version": "0.8.10+commit.fc410830.Emscripten.clang"
  },
  "schemaVersion": "3.4.13",
  "updatedAt": "2023-05-04T14:01:12.806Z",
  "networkType": "ethereum",
  "devdoc": {
    "kind": "dev",
    "methods": {},
    "version": 1
  },
  "userdoc": {
    "kind": "user",
    "methods": {},
    "version": 1
  }
}